:0400000007EF00F016
:0A00080053827EED11F018EF1DF099
:1006000000363636363535353534343434333333D5
:10061000333232323231313131000001806F310EEC
:100620000001816F000E856F000E846F9290929290
:10063000929492969298929A80808082808480860A
:100640008088808A550E8019D8A4E0D0000E836F70
:10065000000E826F83BF08D0835105E1020E825DD8
:10066000D8B0120001D01200000E856F000E846F0A
:1006700085BF08D0855105E1060E845DD8B0B9D09C
:1006800001D0B7D04A0E8225D96E000E8321DA6ED2
:10069000DF502E6E2F6A81518425306E000E852129
:1006A000316E2E50301819E12F503118D8A415D0C2
:1006B000809282518311D8A407D08451610F57ECE6
:1006C0001DF05BEC1DF007D0000184516D0F57EC5D
:1006D0001DF05BEC1DF0526E8082460E00018225FB
:1006E000D96E000E8321DA6EDF502E6E2F6A815193
:1006F0008425306E000E8521316E2E50301819E1A0
:100700002F503118D8A415D0809482518311D8A4C9
:1007100007D08451610F57EC1DF05BEC1DF007D042
:10072000000184516D0F57EC1DF05BEC1DF0526E13
:100730008084420E00018225D96E000E8321DA6E7C
:10074000DF502E6E2F6A81518425306E000E852178
:10075000316E2E50301819E12F503118D8A415D011
:10076000809682518311D8A407D08451610F57EC31
:100770001DF05BEC1DF007D0000184516D0F57ECAC
:100780001DF05BEC1DF0526E80863E0E000182254E
:10079000D96E000E8321DA6EDF502E6E2F6A8151E2
:1007A0008425306E000E8521316E2E50301819E1EF
:1007B0002F503118D8A415D0809882518311D8A415
:1007C00007D08451610F57EC1DF05BEC1DF007D092
:1007D000000184516D0F57EC1DF05BEC1DF0526E63
:1007E00080880001844B852B85BF4CD7855101E162
:1007F00043D7FA0E00D0E82EFDD70001824B832BA1
:1008000083BF32D7835101E129D71200440E8019EA
:10081000D8A4E0D0000E836F020E826F83BF08D091
:10082000835105E1040E825DD8B0120001D01200A0
:10083000000E856F000E846F85BF08D0855105E1DD
:10084000060E845DD8B0B9D001D0B7D04A0E82254B
:10085000D96E000E8321DA6EDF502E6E2F6A815121
:100860008425306E000E8521316E2E50301819E12E
:100870002F503118D8A415D0809282518311D8A45A
:1008800007D08451670F57EC1DF05BEC1DF007D0CB
:1008900000018451730F57EC1DF05BEC1DF0526E9C
:1008A0008082460E00018225D96E000E8321DA6E09
:1008B000DF502E6E2F6A81518425306E000E852107
:1008C000316E2E50301819E12F503118D8A415D0A0
:1008D000809482518311D8A407D08451670F57ECBC
:1008E0001DF05BEC1DF007D000018451730F57EC35
:1008F0001DF05BEC1DF0526E8084420E00018225DB
:10090000D96E000E8321DA6EDF502E6E2F6A815170
:100910008425306E000E8521316E2E50301819E17D
:100920002F503118D8A415D0809682518311D8A4A5
:1009300007D08451670F57EC1DF05BEC1DF007D01A
:1009400000018451730F57EC1DF05BEC1DF0526EEB
:1009500080863E0E00018225D96E000E8321DA6E5C
:10096000DF502E6E2F6A81518425306E000E852156
:10097000316E2E50301819E12F503118D8A415D0EF
:10098000809882518311D8A407D08451670F57EC07
:100990001DF05BEC1DF007D000018451730F57EC84
:1009A0001DF05BEC1DF0526E80880001844B852B9E
:1009B00085BF4CD7855101E143D7FA0E00D0E82E10
:1009C000FDD70001824B832B83BF32D7835101E1D6
:1009D00029D712004C0E8019D8A4E2D0000E836FE4
:1009E000000E826F83BF08D0835105E1040E825D43
:1009F000D8B0120001D01200000E856F000E846F77
:100A000085BF08D0855105E1060E845DD8B0B9D008
:100A100001D0B7D04E0E8225D96E000E8321DA6E3A
:100A2000DF502E6E2F6A81518425306E000E852195
:100A3000316E2E50301819E12F503118D8A415D02E
:100A4000809082518311D8A407D08451610F57EC54
:100A50001DF05BEC1DF007D000018451670F57ECCF
:100A60001DF05BEC1DF0526E80804A0E0001822565
:100A7000D96E000E8321DA6EDF502E6E2F6A8151FF
:100A80008425306E000E8521316E2E50301819E10C
:100A90002F503118D8A415D0809282518311D8A438
:100AA00007D08451610F57EC1DF05BEC1DF007D0AF
:100AB00000018451670F57EC1DF05BEC1DF0526E86
:100AC0008082460E00018225D96E000E8321DA6EE7
:100AD000DF502E6E2F6A81518425306E000E8521E5
:100AE000316E2E50301819E12F503118D8A415D07E
:100AF000809482518311D8A407D08451610F57ECA0
:100B00001DF05BEC1DF007D000018451670F57EC1E
:100B10001DF05BEC1DF0526E80843A0E00018225C0
:100B2000D96E000E8321DA6EDF502E6E2F6A81514E
:100B30008425306E000E8521316E2E50301819E15B
:100B40002F503118D8A415D0809A82518311D8A47F
:100B500007D08451610F57EC1DF05BEC1DF007D0FE
:100B600000018451670F57EC1DF05BEC1DF0526ED5
:100B7000808A0001844B852B85BF4CD7855101E1CC
:100B800043D7FA0E00D0E82EFDD7020E00018227CF
:100B9000000E832383BF30D7835101E127D7120092
:100BA000520E8019D8A4E2D0000E836F010E826F1E
:100BB00083BF08D0835105E1040E825DD8B01200D6
:100BC00001D01200000E856F000E846F85BF08D023
:100BD000855105E1060E845DD8B0B9D001D0B7D0FB
:100BE0004E0E8225D96E000E8321DA6EDF502E6EF6
:100BF0002F6A81518425306E000E8521316E2E5072
:100C0000301819E12F503118D8A415D08090825196
:100C10008311D8A407D084516D0F57EC1DF05BEC05
:100C20001DF007D000018451730F57EC1DF05BECF1
:100C30001DF0526E80804A0E00018225D96E000E92
:100C40008321DA6EDF502E6E2F6A81518425306E3B
:100C5000000E8521316E2E50301819E12F503118B9
:100C6000D8A415D0809282518311D8A407D0845182
:100C70006D0F57EC1DF05BEC1DF007D000018451A7
:100C8000730F57EC1DF05BEC1DF0526E8082460E28
:100C900000018225D96E000E8321DA6EDF502E6EA0
:100CA0002F6A81518425306E000E8521316E2E50C1
:100CB000301819E12F503118D8A415D080948251E2
:100CC0008311D8A407D084516D0F57EC1DF05BEC55
:100CD0001DF007D000018451730F57EC1DF05BEC41
:100CE0001DF0526E80843A0E00018225D96E000EEE
:100CF0008321DA6EDF502E6E2F6A81518425306E8B
:100D0000000E8521316E2E50301819E12F50311808
:100D1000D8A415D0809A82518311D8A407D08451C9
:100D20006D0F57EC1DF05BEC1DF007D000018451F6
:100D3000730F57EC1DF05BEC1DF0526E808A0001C2
:100D4000844B852B85BF4CD7855101E143D7FA0EE3
:100D500000D0E82EFDD7020E00018227000E83236B
:100D600083BF30D7835101E127D71200460E801987
:100D7000D8A4E0D0000E836F020E826F83BF08D02C
:100D8000835105E1040E825DD8B0120001D012003B
:100D9000000E856F000E846F85BF08D0855105E178
:100DA000060E845DD8B0B9D001D0B7D04E0E8225E2
:100DB000D96E000E8321DA6EDF502E6E2F6A8151BC
:100DC0008425306E000E8521316E2E50301819E1C9
:100DD0002F503118D8A415D0809082518311D8A4F7
:100DE00007D08451670F57EC1DF05BEC1DF007D066
:100DF00000018451730F57EC1DF05BEC1DF0526E37
:100E000080804A0E00018225D96E000E8321DA6EA1
:100E1000DF502E6E2F6A81518425306E000E8521A1
:100E2000316E2E50301819E12F503118D8A415D03A
:100E3000809282518311D8A407D08451670F57EC58
:100E40001DF05BEC1DF007D000018451730F57ECCF
:100E50001DF05BEC1DF0526E8082420E0001822577
:100E6000D96E000E8321DA6EDF502E6E2F6A81510B
:100E70008425306E000E8521316E2E50301819E118
:100E80002F503118D8A415D0809682518311D8A440
:100E900007D08451670F57EC1DF05BEC1DF007D0B5
:100EA00000018451730F57EC1DF05BEC1DF0526E86
:100EB00080863A0E00018225D96E000E8321DA6EFB
:100EC000DF502E6E2F6A81518425306E000E8521F1
:100ED000316E2E50301819E12F503118D8A415D08A
:100EE000809A82518311D8A407D08451670F57ECA0
:100EF0001DF05BEC1DF007D000018451730F57EC1F
:100F00001DF05BEC1DF0526E808A0001844B852B36
:100F100085BF4CD7855101E143D7FA0E00D0E82EAA
:100F2000FDD70001824B832B83BF32D7835101E170
:100F300029D71200420E8019D8A4E0D0000E836F8A
:100F4000000E826F83BF08D0835105E1020E825DDF
:100F5000D8B0120001D01200000E856F000E846F11
:100F600085BF08D0855105E1060E845DD8B0B9D0A3
:100F700001D0B7D04E0E8225D96E000E8321DA6ED5
:100F8000DF502E6E2F6A81518425306E000E852130
:100F9000316E2E50301819E12F503118D8A415D0C9
:100FA000809082518311D8A407D08451610F57ECEF
:100FB0001DF05BEC1DF007D0000184516D0F57EC64
:100FC0001DF05BEC1DF0526E80804A0E0001822500
:100FD000D96E000E8321DA6EDF502E6E2F6A81519A
:100FE0008425306E000E8521316E2E50301819E1A7
:100FF0002F503118D8A415D0809282518311D8A4D3
:1010000007D08451610F57EC1DF05BEC1DF007D049
:10101000000184516D0F57EC1DF05BEC1DF0526E1A
:101020008082420E00018225D96E000E8321DA6E85
:10103000DF502E6E2F6A81518425306E000E85217F
:10104000316E2E50301819E12F503118D8A415D018
:10105000809682518311D8A407D08451610F57EC38
:101060001DF05BEC1DF007D0000184516D0F57ECB3
:101070001DF05BEC1DF0526E80863A0E0001822559
:10108000D96E000E8321DA6EDF502E6E2F6A8151E9
:101090008425306E000E8521316E2E50301819E1F6
:1010A0002F503118D8A415D0809A82518311D8A41A
:1010B00007D08451610F57EC1DF05BEC1DF007D099
:1010C000000184516D0F57EC1DF05BEC1DF0526E6A
:1010D000808A0001844B852B85BF4CD7855101E167
:1010E00043D7FA0E00D0E82EFDD70001824B832BA8
:1010F00083BF32D7835101E129D71200410E8019F5
:10110000D8A41200000E836F000E826F83BF08D038
:10111000835105E1040E825DD8B0120001D01200A7
:10112000000E856F000E846F85BF08D0855105E1E4
:10113000060E845DD8B0C5D101D0C3D14E0E822534
:10114000D96E000E8321DA6EDF502E6E2F6A815128
:101150008425306E000E8521316E2E50301837E117
:101160002F503118D8A433D0809082518311D8A445
:1011700007D08451610F57EC1DF05BEC1DF025D0BA
:10118000000182058311D8A407D084516D0F57EC5C
:101190001DF05BEC1DF019D0020E000182198311C5
:1011A000D8A407D08451670F57EC1DF05BEC1DF0FD
:1011B0000CD0030E000182198311D8A407D08451EA
:1011C000730F57EC1DF05BEC1DF0526E80804A0EE1
:1011D00000018225D96E000E8321DA6EDF502E6E5B
:1011E0002F6A81518425306E000E8521316E2E507C
:1011F000301837E12F503118D8A433D08092825163
:101200008311D8A407D08451610F57EC1DF05BEC1B
:101210001DF025D0000182058311D8A407D0845188
:101220006D0F57EC1DF05BEC1DF019D0020E0001A4
:1012300082198311D8A407D08451670F57EC1DF091
:101240005BEC1DF00CD0030E000182198311D8A4B1
:1012500007D08451730F57EC1DF05BEC1DF0526EFC
:101260008082460E00018225D96E000E8321DA6E3F
:10127000DF502E6E2F6A81518425306E000E85213D
:10128000316E2E50301837E12F503118D8A433D09A
:10129000809482518311D8A407D08451610F57ECF8
:1012A0001DF05BEC1DF025D0000182058311D8A450
:1012B00007D084516D0F57EC1DF05BEC1DF019D079
:1012C000020E000182198311D8A407D08451670F40
:1012D00057EC1DF05BEC1DF00CD0030E00018219E1
:1012E0008311D8A407D08451730F57EC1DF05BEC29
:1012F0001DF0526E8084420E00018225D96E000ED0
:101300008321DA6EDF502E6E2F6A81518425306E74
:10131000000E8521316E2E50301837E12F503118D4
:10132000D8A433D0809682518311D8A407D0845199
:10133000610F57EC1DF05BEC1DF025D0000182051C
:101340008311D8A407D084516D0F57EC1DF05BECCE
:101350001DF019D0020E000182198311D8A407D004
:101360008451670F57EC1DF05BEC1DF00CD0030EA1
:10137000000182198311D8A407D08451730F57EC50
:101380001DF05BEC1DF0526E80863E0E0001822542
:10139000D96E000E8321DA6EDF502E6E2F6A8151D6
:1013A0008425306E000E8521316E2E50301837E1C5
:1013B0002F503118D8A433D0809882518311D8A4EB
:1013C00007D08451610F57EC1DF05BEC1DF025D068
:1013D000000182058311D8A407D084516D0F57EC0A
:1013E0001DF05BEC1DF019D0020E00018219831173
:1013F000D8A407D08451670F57EC1DF05BEC1DF0AB
:101400000CD0030E000182198311D8A407D0845197
:10141000730F57EC1DF05BEC1DF0526E80883A0E96
:1014200000018225D96E000E8321DA6EDF502E6E08
:101430002F6A81518425306E000E8521316E2E5029
:10144000301837E12F503118D8A433D0809A825108
:101450008311D8A407D08451610F57EC1DF05BECC9
:101460001DF025D0000182058311D8A407D0845136
:101470006D0F57EC1DF05BEC1DF019D0020E000152
:1014800082198311D8A407D08451670F57EC1DF03F
:101490005BEC1DF00CD0030E000182198311D8A45F
:1014A00007D08451730F57EC1DF05BEC1DF0526EAA
:1014B000808A0001844B852B85BF40D6855101E190
:1014C00037D6FA0E00D0E82EFDD70001824B832BD1
:1014D00083BF26D6835101E11DD61200066E310E60
:1014E000076E000E0B6E000E0A6E9290929292940E
:1014F00092969298929A808080828084808680885A
:10150000808A550E0618D8A4D7D0000E096E000E9A
:10151000086E09BE08D0095005E1020E085CD8B07B
:10152000120001D01200000E0B6E000E0A6E0BBEF0
:1015300008D00B5005E1060E0A5CD8B0B1D001D03E
:10154000AFD04A0E0824D96E000E0920DA6EDF50A3
:10155000026E036A07500A24046E000E0B20056E0B
:101560000250041818E103500518D8A414D0809232
:1015700008500910D8A407D00A50610F5FEC1DF085
:1015800063EC1DF006D00A506D0F5FEC1DF063ECAC
:101590001DF0526E8082460E0824D96E000E09207E
:1015A000DA6EDF50026E036A07500A24046E000EE2
:1015B0000B20056E0250041818E103500518D8A43A
:1015C00014D0809408500910D8A407D00A50610F95
:1015D0005FEC1DF063EC1DF006D00A506D0F5FEC60
:1015E0001DF063EC1DF0526E8084420E0824D96E0B
:1015F000000E0920DA6EDF50026E036A07500A24DB
:10160000046E000E0B20056E0250041818E1035002
:101610000518D8A414D0809608500910D8A407D073
:101620000A50610F5FEC1DF063EC1DF006D00A500C
:101630006D0F5FEC1DF063EC1DF0526E80863E0E68
:101640000824D96E000E0920DA6EDF50026E036A9C
:1016500007500A24046E000E0B20056E0250041879
:1016600018E103500518D8A414D080980850091028
:10167000D8A407D00A50610F5FEC1DF063EC1DF099
:1016800006D00A506D0F5FEC1DF063EC1DF0526E3A
:1016900080880A4A0B2A0BBE54D70B5001E14BD766
:1016A000FA0E00D0E82EFDD7084A092A09BE3BD71A
:1016B000095001E132D71200440E0618D8A4D7D041
:1016C000000E096E020E086E09BE08D0095005E131
:1016D000040E085CD8B0120001D01200000E0B6E90
:1016E000000E0A6E0BBE08D00B5005E1060E0A5C18
:1016F000D8B0B1D001D0AFD04A0E0824D96E000EB8
:101700000920DA6EDF50026E036A07500A24046E65
:10171000000E0B20056E0250041818E10350051846
:10172000D8A414D0809208500910D8A407D00A5029
:10173000670F5FEC1DF063EC1DF006D00A50730FCD
:101740005FEC1DF063EC1DF0526E8082460E0824A3
:10175000D96E000E0920DA6EDF50026E036A075060
:101760000A24046E000E0B20056E0250041818E1C6
:1017700003500518D8A414D0809408500910D8A498
:1017800007D00A50670F5FEC1DF063EC1DF006D028
:101790000A50730F5FEC1DF063EC1DF0526E8084F5
:1017A000420E0824D96E000E0920DA6EDF50026E58
:1017B000036A07500A24046E000E0B20056E0250C7
:1017C000041818E103500518D8A414D080960850C6
:1017D0000910D8A407D00A50670F5FEC1DF063EC26
:1017E0001DF006D00A50730F5FEC1DF063EC1DF086
:1017F000526E80863E0E0824D96E000E0920DA6EE5
:10180000DF50026E036A07500A24046E000E0B209C
:10181000056E0250041818E103500518D8A414D01E
:10182000809808500910D8A407D00A50670F5FECC1
:101830001DF063EC1DF006D00A50730F5FEC1DF035
:1018400063EC1DF0526E80880A4A0B2A0BBE54D7F7
:101850000B5001E14BD7FA0E00D0E82EFDD7084A15
:10186000092A09BE3BD7095001E132D712004C0EBC
:101870000618D8A4D9D0000E096E000E086E09BE55
:1018800008D0095005E1040E085CD8B0120001D060
:101890001200000E0B6E000E0A6E0BBE08D00B502D
:1018A00005E1060E0A5CD8B0B1D001D0AFD04E0E23
:1018B0000824D96E000E0920DA6EDF50026E036A2A
:1018C00007500A24046E000E0B20056E0250041807
:1018D00018E103500518D8A414D0809008500910BE
:1018E000D8A407D00A50610F5FEC1DF063EC1DF027
:1018F00006D00A50670F5FEC1DF063EC1DF0526ECE
:1019000080804A0E0824D96E000E0920DA6EDF505E
:10191000026E036A07500A24046E000E0B20056E47
:101920000250041818E103500518D8A414D080926E
:1019300008500910D8A407D00A50610F5FEC1DF0C1
:1019400063EC1DF006D00A50670F5FEC1DF063ECEE
:101950001DF0526E8082460E0824D96E000E0920BA
:10196000DA6EDF50026E036A07500A24046E000E1E
:101970000B20056E0250041818E103500518D8A476
:1019800014D0809408500910D8A407D00A50610FD1
:101990005FEC1DF063EC1DF006D00A50670F5FECA2
:1019A0001DF063EC1DF0526E80843A0E0824D96E4F
:1019B000000E0920DA6EDF50026E036A07500A2417
:1019C000046E000E0B20056E0250041818E103503F
:1019D0000518D8A414D0809A08500910D8A407D0AC
:1019E0000A50610F5FEC1DF063EC1DF006D00A5049
:1019F000670F5FEC1DF063EC1DF0526E808A0A4A9F
:101A00000B2A0BBE54D70B5001E14BD7FA0E00D076
:101A1000E82EFDD7020E0826000E092209BE39D78E
:101A2000095001E130D71200520E0618D8A4D9D0BF
:101A3000000E096E010E086E09BE08D0095005E1BE
:101A4000040E085CD8B0120001D01200000E0B6E1C
:101A5000000E0A6E0BBE08D00B5005E1060E0A5CA4
:101A6000D8B0B1D001D0AFD04E0E0824D96E000E40
:101A70000920DA6EDF50026E036A07500A24046EF2
:101A8000000E0B20056E0250041818E103500518D3
:101A9000D8A414D0809008500910D8A407D00A50B8
:101AA0006D0F5FEC1DF063EC1DF006D00A50730F54
:101AB0005FEC1DF063EC1DF0526E80804A0E08242E
:101AC000D96E000E0920DA6EDF50026E036A0750ED
:101AD0000A24046E000E0B20056E0250041818E153
:101AE00003500518D8A414D0809208500910D8A427
:101AF00007D00A506D0F5FEC1DF063EC1DF006D0AF
:101B00000A50730F5FEC1DF063EC1DF0526E808283
:101B1000460E0824D96E000E0920DA6EDF50026EE0
:101B2000036A07500A24046E000E0B20056E025053
:101B3000041818E103500518D8A414D08094085054
:101B40000910D8A407D00A506D0F5FEC1DF063ECAC
:101B50001DF006D00A50730F5FEC1DF063EC1DF012
:101B6000526E80843A0E0824D96E000E0920DA6E77
:101B7000DF50026E036A07500A24046E000E0B2029
:101B8000056E0250041818E103500518D8A414D0AB
:101B9000809A08500910D8A407D00A506D0F5FEC46
:101BA0001DF063EC1DF006D00A50730F5FEC1DF0C2
:101BB00063EC1DF0526E808A0A4A0B2A0BBE54D782
:101BC0000B5001E14BD7FA0E00D0E82EFDD7020EE4
:101BD0000826000E092209BE39D7095001E130D785
:101BE0001200460E0618D8A4D7D0000E096E020EB9
:101BF000086E09BE08D0095005E1040E085CD8B093
:101C0000120001D01200000E0B6E000E0A6E0BBE09
:101C100008D00B5005E1060E0A5CD8B0B1D001D057
:101C2000AFD04E0E0824D96E000E0920DA6EDF50B8
:101C3000026E036A07500A24046E000E0B20056E24
:101C40000250041818E103500518D8A414D080904D
:101C500008500910D8A407D00A50670F5FEC1DF098
:101C600063EC1DF006D00A50730F5FEC1DF063ECBF
:101C70001DF0526E80804A0E0824D96E000E092095
:101C8000DA6EDF50026E036A07500A24046E000EFB
:101C90000B20056E0250041818E103500518D8A453
:101CA00014D0809208500910D8A407D00A50670FAA
:101CB0005FEC1DF063EC1DF006D00A50730F5FEC73
:101CC0001DF063EC1DF0526E8082420E0824D96E26
:101CD000000E0920DA6EDF50026E036A07500A24F4
:101CE000046E000E0B20056E0250041818E103501C
:101CF0000518D8A414D0809608500910D8A407D08D
:101D00000A50670F5FEC1DF063EC1DF006D00A501F
:101D1000730F5FEC1DF063EC1DF0526E80863A0E7F
:101D20000824D96E000E0920DA6EDF50026E036AB5
:101D300007500A24046E000E0B20056E0250041892
:101D400018E103500518D8A414D0809A085009103F
:101D5000D8A407D00A50670F5FEC1DF063EC1DF0AC
:101D600006D00A50730F5FEC1DF063EC1DF0526E4D
:101D7000808A0A4A0B2A0BBE54D70B5001E14BD77D
:101D8000FA0E00D0E82EFDD7084A092A09BE3BD733
:101D9000095001E132D71200420E0618D8A4D7D05C
:101DA000000E096E000E086E09BE08D0095005E14C
:101DB000020E085CD8B0120001D01200000E0B6EAB
:101DC000000E0A6E0BBE08D00B5005E1060E0A5C31
:101DD000D8B0B1D001D0AFD04E0E0824D96E000ECD
:101DE0000920DA6EDF50026E036A07500A24046E7F
:101DF000000E0B20056E0250041818E10350051860
:101E0000D8A414D0809008500910D8A407D00A5044
:101E1000610F5FEC1DF063EC1DF006D00A506D0FF2
:101E20005FEC1DF063EC1DF0526E80804A0E0824BA
:101E3000D96E000E0920DA6EDF50026E036A075079
:101E40000A24046E000E0B20056E0250041818E1DF
:101E500003500518D8A414D0809208500910D8A4B3
:101E600007D00A50610F5FEC1DF063EC1DF006D047
:101E70000A506D0F5FEC1DF063EC1DF0526E808216
:101E8000420E0824D96E000E0920DA6EDF50026E71
:101E9000036A07500A24046E000E0B20056E0250E0
:101EA000041818E103500518D8A414D080960850DF
:101EB0000910D8A407D00A50610F5FEC1DF063EC45
:101EC0001DF006D00A506D0F5FEC1DF063EC1DF0A5
:101ED000526E80863A0E0824D96E000E0920DA6E02
:101EE000DF50026E036A07500A24046E000E0B20B6
:101EF000056E0250041818E103500518D8A414D038
:101F0000809A08500910D8A407D00A50610F5FECDE
:101F10001DF063EC1DF006D00A506D0F5FEC1DF054
:101F200063EC1DF0526E808A0A4A0B2A0BBE54D70E
:101F30000B5001E14BD7FA0E00D0E82EFDD7084A2E
:101F4000092A09BE3BD7095001E132D71200410EE0
:101F50000618D8A41200000E096E000E086E09BE05
:101F600008D0095005E1040E085CD8B0120001D079
:101F70001200000E0B6E000E0A6E0BBE08D00B5046
:101F800005E1060E0A5CD8B0ADD101D0ABD14E0E42
:101F90000824D96E000E0920DA6EDF50026E036A43
:101FA00007500A24046E000E0B20056E0250041820
:101FB00034E103500518D8A430D08090085009109F
:101FC000D8A407D00A50610F5FEC1DF063EC1DF040
:101FD00022D008040910D8A407D00A506D0F5FEC76
:101FE0001DF063EC1DF017D0020E08180910D8A4DC
:101FF00007D00A50670F5FEC1DF063EC1DF00BD0AB
:10200000030E08180910D8A407D00A50730F5FEC0C
:102010001DF063EC1DF0526E80804A0E0824D96ECC
:10202000000E0920DA6EDF50026E036A07500A24A0
:10203000046E000E0B20056E0250041834E10350AC
:102040000518D8A430D0809208500910D8A407D021
:102050000A50610F5FEC1DF063EC1DF022D0080404
:102060000910D8A407D00A506D0F5FEC1DF063EC87
:102070001DF017D0020E08180910D8A407D00A5076
:10208000670F5FEC1DF063EC1DF00BD0030E08181A
:102090000910D8A407D00A50730F5FEC1DF063EC51
:1020A0001DF0526E8082460E0824D96E000E092063
:1020B000DA6EDF50026E036A07500A24046E000EC7
:1020C0000B20056E0250041834E103500518D8A403
:1020D00030D0809408500910D8A407D00A50610F5E
:1020E0005FEC1DF063EC1DF022D008040910D8A4A9
:1020F00007D00A506D0F5FEC1DF063EC1DF017D098
:10210000020E08180910D8A407D00A50670F5FEC18
:102110001DF063EC1DF00BD0030E08180910D8A4B5
:1021200007D00A50730F5FEC1DF063EC1DF0526E88
:102130008084420E0824D96E000E0920DA6EDF502A
:10214000026E036A07500A24046E000E0B20056E0F
:102150000250041834E103500518D8A430D08096FA
:1021600008500910D8A407D00A50610F5FEC1DF089
:1021700063EC1DF022D008040910D8A407D00A503F
:102180006D0F5FEC1DF063EC1DF017D0020E081808
:102190000910D8A407D00A50670F5FEC1DF063EC5C
:1021A0001DF00BD0030E08180910D8A407D00A5050
:1021B000730F5FEC1DF063EC1DF0526E80863E0ED7
:1021C0000824D96E000E0920DA6EDF50026E036A11
:1021D00007500A24046E000E0B20056E02500418EE
:1021E00034E103500518D8A430D080980850091065
:1021F000D8A407D00A50610F5FEC1DF063EC1DF00E
:1022000022D008040910D8A407D00A506D0F5FEC43
:102210001DF063EC1DF017D0020E08180910D8A4A9
:1022200007D00A50670F5FEC1DF063EC1DF00BD078
:10223000030E08180910D8A407D00A50730F5FECDA
:102240001DF063EC1DF0526E80883A0E0824D96EA2
:10225000000E0920DA6EDF50026E036A07500A246E
:10226000046E000E0B20056E0250041834E103507A
:102270000518D8A430D0809A08500910D8A407D0E7
:102280000A50610F5FEC1DF063EC1DF022D00804D2
:102290000910D8A407D00A506D0F5FEC1DF063EC55
:1022A0001DF017D0020E08180910D8A407D00A5044
:1022B000670F5FEC1DF063EC1DF00BD0030E0818E8
:1022C0000910D8A407D00A50730F5FEC1DF063EC1F
:1022D0001DF0526E808A0A4A0B2A0BBE58D60B504C
:1022E00001E14FD6FA0E00D0E82EFDD7084A092AA0
:1022F00009BE3FD6095001E136D612000600FACFDA
:1023000017F0FBCF18F0E9CF19F0EACF1AF0E1CFC0
:102310001BF0E2CF1CF0D9CF1DF0DACF1EF0F3CFC7
:102320001FF0F4CF20F0F6CF21F0F7CF22F0F8CF56
:1023300023F0F5CF24F053C025F054C026F055C04B
:1023400027F056C028F0D6CF01F0D7CF02F050ECDE
:102350001DF0000E2C6E010E2B6E2CBE03D02C50E7
:102360006FE16AD0EFEC1CF00DC00FF00EC010F062
:10237000000E126E0C0E116E8CEC1CF0010E0F2470
:10238000296E000E10202A6E24D0D9EC19F04ED000
:1023900080EC19F04BD03DEC1BF048D0E4EC1AF087
:1023A00045D055EC16F042D0FAEC15F03FD09FEC3A
:1023B00015F03CD044EC15F039D08BEC1AF036D047
:1023C00032EC1AF033D0EFEC1BF030D096EC1BF06F
:1023D0002DD029C015F02AC016F01650000AD8A436
:1023E00025D01550010AD8B4D0D7030AD8B4D0D715
:1023F000010AD8B4D0D7070AD8B4D0D7010AD8B4C4
:10240000D0D7030AD8B4D0D7010AD8B4D0D70F0A8E
:10241000D8B4D0D7010AD8B4D0D7030AD8B4D0D70B
:10242000010AD8B4D0D7070AD8B4D0D72B4A2C2A5F
:102430002CBE98D72C5004E1150E2B5CD8A092D757
:10244000F29ED09E28C056F027C055F026C054F00A
:1024500025C053F024C0F5FF23C0F8FF22C0F7FFCA
:1024600021C0F6FF20C0F4FF1FC0F3FF1EC0DAFF3B
:102470001DC0D9FF1CC0E2FF1BC0E1FF1AC0EAFF6C
:1024800019C0E9FF18C0FBFF17C0FAFF53921100F3
:10249000000E316E000E306E31BE08D0315005E1B5
:1024A000040E305CD8B085D001D083D04E0E3024DD
:1024B000D96E000E3120DA6EDF502F6E150E3024EB
:1024C000F66E060E3120F76E0800F5502F18D8B4BE
:1024D00005D0000E2E6E000E2D6E12004A0E302416
:1024E000D96E000E3120DA6EDF502F6E110E3024BF
:1024F000F66E060E3120F76E0800F5502F18D8A49E
:10250000E8D7460E3024D96E000E3120DA6EDF5047
:102510002F6E0D0E3024F66E060E3120F76E080079
:10252000F5502F18D8A4D5D7420E3024D96E000EFE
:102530003120DA6EDF502F6E090E3024F66E060E53
:102540003120F76E0800F5502F18D8A4C2D73E0EE0
:102550003024D96E000E3120DA6EDF502F6E050E5A
:102560003024F66E060E3120F76E0800F5502F1855
:10257000D8A4AFD73A0E3024D96E000E3120DA6ECF
:10258000DF502F6E010E3024F66E060E3120F76EEE
:102590000800F5502F18D8B405D0000E2E6E000E8E
:1025A0002D6E1200304A312A31BE80D7315001E100
:1025B00077D7000E2E6E010E2D6E1200948E948C25
:1025C000938A93889386938493829380958E958C37
:1025D000958A958895869584000E00018B6F010E73
:1025E0008A6F000E896F000E886F000E2D6E000E30
:1025F0002E6E000E2F6E200E40EC1DF0410E0DECE5
:1026000003F083B60CD000018A058B11D8A407D043
:10261000D08EF28E000E8B6F000E8A6F50D083B476
:102620004ED048EC1CF04BD082BE03D00AEC17F021
:1026300040D082BC03D0B0EC16F03BD081BA03D0BE
:1026400072EC18F036D081B803D018EC18F031D005
:1026500081B603D0E8EC14F02CD081B403D08CEC1C
:1026600014F027D081B203D030EC14F022D081B026
:1026700003D0D4EC13F01DD083BE03D0BEEC17F012
:1026800018D083BC03D064EC17F013D083BA03D006
:1026900026EC19F00ED083B803D0CCEC18F009D09A
:1026A00083B607D065EC13F0000E00018B6F010EAE
:1026B0008A6F48EC12F02DC08AF02EC08BF000011A
:1026C0008A518B11D8A49DD7AFD7000E0001876F18
:1026D000000E866F87BF06D0875165E1040E865DC8
:1026E000D8B01200150E8625F66E060E8721F76EFD
:1026F0004E0E8625D96E000E8721DA6E0800F5CFC2
:10270000DFFF110E8625F66E060E8721F76E4A0E44
:102710008625D96E000E8721DA6E0800F5CFDFFF1F
:102720000D0E8625F66E060E8721F76E460E86255F
:10273000D96E000E8721DA6E0800F5CFDFFF090E93
:102740008625F66E060E8721F76E420E8625D96E17
:10275000000E8721DA6E0800F5CFDFFF050E862513
:10276000F66E060E8721F76E3E0E8625D96E000E98
:102770008721DA6E0800F5CFDFFF010E8625F66EA1
:10278000060E8721F76E3A0E8625D96E000E872138
:10279000DA6E0800F5CFDFFF410E0DEC03F000010B
:1027A000864B872B97D71200000E0001876F010E12
:1027B000866F87BF06D087514FE1040E865DD8B083
:1027C0004BD0460E8625D96E000E8721DA6E360E66
:1027D0008625E16E000E8721E26EDFCFE7FF4E0E09
:1027E0008625D96E000E8721DA6E460E8625E16EAB
:1027F000000E8721E26EDFCFE7FF4A0E8625D96EF5
:10280000000E8721DA6E4E0E8625E16E000E8721BE
:10281000E26EDFCFE7FF3A0E8625D96E000E8721E4
:10282000DA6E4A0E8625E16E000E8721E26EDFCF5A
:10283000E7FF360E8625D96E000E8721DA6E3A0E36
:102840008625E16E000E8721E26EDFCFE7FF020EE4
:102850008627000E8723ADD7520E0DEC03F0120031
:10286000000E0001876F010E866F87BF06D087516B
:102870004FE1040E865DD8B04BD0460E8625D96E4A
:10288000000E8721DA6E360E8625E16E000E872156
:10289000E26EDFCFE7FF3A0E8625D96E000E872164
:1028A000DA6E460E8625E16E000E8721E26EDFCFDE
:1028B000E7FF4A0E8625D96E000E8721DA6E3A0EA2
:1028C0008625E16E000E8721E26EDFCFE7FF4E0E18
:1028D0008625D96E000E8721DA6E4A0E8625E16EB6
:1028E000000E8721E26EDFCFE7FF360E8625D96E18
:1028F000000E8721DA6E4E0E8625E16E000E8721CE
:10290000E26EDFCFE7FF020E8627000E8723ADD7EA
:10291000520E0DEC03F01200000E0001876F000E46
:10292000866F87BF06D087514FE1030E865DD8B012
:102930004BD0460E8625D96E000E8721DA6E360EF4
:102940008625E16E000E8721E26EDFCFE7FF3A0EAB
:102950008625D96E000E8721DA6E460E8625E16E39
:10296000000E8721E26EDFCFE7FF4A0E8625D96E83
:10297000000E8721DA6E3A0E8625E16E000E872161
:10298000E26EDFCFE7FF4E0E8625D96E000E87215F
:10299000DA6E4A0E8625E16E000E8721E26EDFCFE9
:1029A000E7FF360E8625D96E000E8721DA6E4E0EB1
:1029B0008625E16E000E8721E26EDFCFE7FF020E73
:1029C0008627000E8723ADD74C0E0DEC03F01200C6
:1029D000000E0001876F000E866F87BF06D08751FB
:1029E0004FE1030E865DD8B04BD0460E8625D96EDA
:1029F000000E8721DA6E360E8625E16E000E8721E5
:102A0000E26EDFCFE7FF4E0E8625D96E000E8721DE
:102A1000DA6E460E8625E16E000E8721E26EDFCF6C
:102A2000E7FF4A0E8625D96E000E8721DA6E4E0E1C
:102A30008625E16E000E8721E26EDFCFE7FF3A0EBA
:102A40008625D96E000E8721DA6E4A0E8625E16E44
:102A5000000E8721E26EDFCFE7FF360E8625D96EA6
:102A6000000E8721DA6E3A0E8625E16E000E872170
:102A7000E26EDFCFE7FF020E8627000E8723ADD779
:102A80004C0E0DEC03F01200000E0D6E010E0C6EDC
:102A90000DBE06D00D504FE1040E0C5CD8B04BD0EB
:102AA000460E0C24D96E000E0D20DA6E360E0C2464
:102AB000E16E000E0D20E26EDFCFE7FF4E0E0C241C
:102AC000D96E000E0D20DA6E460E0C24E16E000E5B
:102AD0000D20E26EDFCFE7FF4A0E0C24D96E000E08
:102AE0000D20DA6E4E0E0C24E16E000E0D20E26E0B
:102AF000DFCFE7FF3A0E0C24D96E000E0D20DA6E00
:102B00004A0E0C24E16E000E0D20E26EDFCFE7FFCF
:102B1000360E0C24D96E000E0D20DA6E3A0E0C24FF
:102B2000E16E000E0D20E26EDFCFE7FF020E0C26F5
:102B3000000E0D22ADD7520E6EEC0AF01200000E00
:102B40000D6E010E0C6E0DBE06D00D504FE1040E41
:102B50000C5CD8B04BD0460E0C24D96E000E0D2064
:102B6000DA6E360E0C24E16E000E0D20E26EDFCF21
:102B7000E7FF3A0E0C24D96E000E0D20DA6E460ED9
:102B80000C24E16E000E0D20E26EDFCFE7FF4A0E4F
:102B90000C24D96E000E0D20DA6E3A0E0C24E16E74
:102BA000000E0D20E26EDFCFE7FF4E0E0C24D96E33
:102BB000000E0D20DA6E4A0E0C24E16E000E0D2080
:102BC000E26EDFCFE7FF360E0C24D96E000E0D202B
:102BD000DA6E4E0E0C24E16E000E0D20E26EDFCF99
:102BE000E7FF020E0C26000E0D22ADD7520E6EEC42
:102BF0000AF01200000E0D6E000E0C6E0DBE06D017
:102C00000D504FE1030E0C5CD8B04BD0460E0C2497
:102C1000D96E000E0D20DA6E360E0C24E16E000E19
:102C20000D20E26EDFCFE7FF3A0E0C24D96E000EC6
:102C30000D20DA6E460E0C24E16E000E0D20E26EC1
:102C4000DFCFE7FF4A0E0C24D96E000E0D20DA6E9E
:102C50003A0E0C24E16E000E0D20E26EDFCFE7FF8E
:102C60004E0E0C24D96E000E0D20DA6E4A0E0C2486
:102C7000E16E000E0D20E26EDFCFE7FF360E0C2472
:102C8000D96E000E0D20DA6E4E0E0C24E16E000E91
:102C90000D20E26EDFCFE7FF020E0C26000E0D22A4
:102CA000ADD74C0E6EEC0AF01200000E0D6E000E49
:102CB0000C6E0DBE06D00D504FE1030E0C5CD8B06B
:102CC0004BD0460E0C24D96E000E0D20DA6E360E57
:102CD0000C24E16E000E0D20E26EDFCFE7FF4E0EFA
:102CE0000C24D96E000E0D20DA6E460E0C24E16E17
:102CF000000E0D20E26EDFCFE7FF4A0E0C24D96EE6
:102D0000000E0D20DA6E4E0E0C24E16E000E0D202A
:102D1000E26EDFCFE7FF3A0E0C24D96E000E0D20D5
:102D2000DA6E4A0E0C24E16E000E0D20E26EDFCF4B
:102D3000E7FF360E0C24D96E000E0D20DA6E3A0E27
:102D40000C24E16E000E0D20E26EDFCFE7FF020ED5
:102D50000C26000E0D22ADD74C0E6EEC0AF01200C0
:102D6000000E0001876F000E866F87BF06D0875167
:102D70004DE1020E865DD8B049D0460E8625D96E4B
:102D8000000E8721DA6E360E8625E16E000E872151
:102D9000E26EDFCFE7FF4A0E8625D96E000E87214F
:102DA000DA6E460E8625E16E000E8721E26EDFCFD9
:102DB000E7FF3E0E8625D96E000E8721DA6E4A0E99
:102DC0008625E16E000E8721E26EDFCFE7FF420E1F
:102DD0008625D96E000E8721DA6E3E0E8625E16EBD
:102DE000000E8721E26EDFCFE7FF360E8625D96E13
:102DF000000E8721DA6E420E8625E16E000E8721D5
:102E0000E26EDFCFE7FF864B872BAFD7550E0DEC79
:102E100003F01200000E0001876F000E866F87BF5F
:102E200006D087514DE1020E865DD8B049D0460EDE
:102E30008625D96E000E8721DA6E360E8625E16E64
:102E4000000E8721E26EDFCFE7FF420E8625D96EA6
:102E5000000E8721DA6E460E8625E16E000E872170
:102E6000E26EDFCFE7FF3E0E8625D96E000E87218A
:102E7000DA6E420E8625E16E000E8721E26EDFCF0C
:102E8000E7FF4A0E8625D96E000E8721DA6E3E0EC8
:102E90008625E16E000E8721E26EDFCFE7FF360E5A
:102EA0008625D96E000E8721DA6E4A0E8625E16EE0
:102EB000000E8721E26EDFCFE7FF864B872BAFD76F
:102EC000550E0DEC03F01200000E0001876F020E8C
:102ED000866F87BF06D087514DE1040E865DD8B05E
:102EE00049D04E0E8625D96E000E8721DA6E360E39
:102EF0008625E16E000E8721E26EDFCFE7FF420EEE
:102F00008625D96E000E8721DA6E4E0E8625E16E7B
:102F1000000E8721E26EDFCFE7FF3A0E8625D96EDD
:102F2000000E8721DA6E420E8625E16E000E8721A3
:102F3000E26EDFCFE7FF4A0E8625D96E000E8721AD
:102F4000DA6E3A0E8625E16E000E8721E26EDFCF43
:102F5000E7FF360E8625D96E000E8721DA6E4A0EFF
:102F60008625E16E000E8721E26EDFCFE7FF864BFC
:102F7000872BAFD7460E0DEC03F01200000E0001B8
:102F8000876F020E866F87BF06D087514DE1040E12
:102F9000865DD8B049D04E0E8625D96E000E8721A9
:102FA000DA6E360E8625E16E000E8721E26EDFCFE7
:102FB000E7FF4A0E8625D96E000E8721DA6E4E0E87
:102FC0008625E16E000E8721E26EDFCFE7FF3A0E25
:102FD0008625D96E000E8721DA6E4A0E8625E16EAF
:102FE000000E8721E26EDFCFE7FF420E8625D96E05
:102FF000000E8721DA6E3A0E8625E16E000E8721DB
:10300000E26EDFCFE7FF360E8625D96E000E8721F0
:10301000DA6E420E8625E16E000E8721E26EDFCF6A
:10302000E7FF864B872BAFD7460E0DEC03F012005F
:10303000000E0001876F020E866F87BF06D0875192
:103040004DE1040E865DD8B049D0460E8625D96E76
:10305000000E8721DA6E360E8625E16E000E87217E
:10306000E26EDFCFE7FF420E8625D96E000E872184
:10307000DA6E460E8625E16E000E8721E26EDFCF06
:10308000E7FF3E0E8625D96E000E8721DA6E420ECE
:103090008625E16E000E8721E26EDFCFE7FF4A0E44
:1030A0008625D96E000E8721DA6E3E0E8625E16EEA
:1030B000000E8721E26EDFCFE7FF360E8625D96E40
:1030C000000E8721DA6E4A0E8625E16E000E8721FA
:1030D000E26EDFCFE7FF864B872BAFD7440E0DECB8
:1030E00003F01200000E0001876F020E866F87BF8B
:1030F00006D087514DE1040E865DD8B049D0460E0A
:103100008625D96E000E8721DA6E360E8625E16E91
:10311000000E8721E26EDFCFE7FF4A0E8625D96ECB
:10312000000E8721DA6E460E8625E16E000E87219D
:10313000E26EDFCFE7FF3E0E8625D96E000E8721B7
:10314000DA6E4A0E8625E16E000E8721E26EDFCF31
:10315000E7FF420E8625D96E000E8721DA6E3E0EFD
:103160008625E16E000E8721E26EDFCFE7FF360E87
:103170008625D96E000E8721DA6E420E8625E16E15
:10318000000E8721E26EDFCFE7FF864B872BAFD79C
:10319000440E0DEC03F01200000E0001876F000ECC
:1031A000866F87BF06D087514DE1020E865DD8B08D
:1031B00049D04E0E8625D96E000E8721DA6E360E66
:1031C0008625E16E000E8721E26EDFCFE7FF4A0E13
:1031D0008625D96E000E8721DA6E4E0E8625E16EA9
:1031E000000E8721E26EDFCFE7FF3A0E8625D96E0B
:1031F000000E8721DA6E4A0E8625E16E000E8721C9
:10320000E26EDFCFE7FF420E8625D96E000E8721E2
:10321000DA6E3A0E8625E16E000E8721E26EDFCF70
:10322000E7FF360E8625D96E000E8721DA6E420E34
:103230008625E16E000E8721E26EDFCFE7FF864B29
:10324000872BAFD7420E0DEC03F01200000E0001E9
:10325000876F000E866F87BF06D087514DE1020E43
:10326000865DD8B049D04E0E8625D96E000E8721D6
:10327000DA6E360E8625E16E000E8721E26EDFCF14
:10328000E7FF420E8625D96E000E8721DA6E4E0EBC
:103290008625E16E000E8721E26EDFCFE7FF3A0E52
:1032A0008625D96E000E8721DA6E420E8625E16EE4
:1032B000000E8721E26EDFCFE7FF4A0E8625D96E2A
:1032C000000E8721DA6E3A0E8625E16E000E872108
:1032D000E26EDFCFE7FF360E8625D96E000E87211E
:1032E000DA6E4A0E8625E16E000E8721E26EDFCF90
:1032F000E7FF864B872BAFD7420E0DEC03F0120091
:10330000000E0D6E000E0C6E0DBE06D00D504DE180
:10331000020E0C5CD8B049D0460E0C24D96E000EBB
:103320000D20DA6E360E0C24E16E000E0D20E26EDA
:10333000DFCFE7FF4A0E0C24D96E000E0D20DA6EA7
:10334000460E0C24E16E000E0D20E26EDFCFE7FF8B
:103350003E0E0C24D96E000E0D20DA6E4A0E0C249F
:10336000E16E000E0D20E26EDFCFE7FF420E0C246F
:10337000D96E000E0D20DA6E3E0E0C24E16E000EAA
:103380000D20E26EDFCFE7FF360E0C24D96E000E63
:103390000D20DA6E420E0C24E16E000E0D20E26E5E
:1033A000DFCFE7FF0C4A0D2AAFD7550E6EEC0AF0BF
:1033B0001200000E0D6E000E0C6E0DBE06D00D50EC
:1033C0004DE1020E0C5CD8B049D0460E0C24D96EEB
:1033D000000E0D20DA6E360E0C24E16E000E0D206C
:1033E000E26EDFCFE7FF420E0C24D96E000E0D20F7
:1033F000DA6E460E0C24E16E000E0D20E26EDFCF79
:10340000E7FF3E0E0C24D96E000E0D20DA6E420E40
:103410000C24E16E000E0D20E26EDFCFE7FF4A0EB6
:103420000C24D96E000E0D20DA6E3E0E0C24E16ED7
:10343000000E0D20E26EDFCFE7FF360E0C24D96EB2
:10344000000E0D20DA6E4A0E0C24E16E000E0D20E7
:10345000E26EDFCFE7FF0C4A0D2AAFD7550E6EECB8
:103460000AF01200000E0D6E020E0C6E0DBE06D09C
:103470000D504DE1040E0C5CD8B049D04E0E0C241A
:10348000D96E000E0D20DA6E360E0C24E16E000EA1
:103490000D20E26EDFCFE7FF420E0C24D96E000E46
:1034A0000D20DA6E4E0E0C24E16E000E0D20E26E41
:1034B000DFCFE7FF3A0E0C24D96E000E0D20DA6E36
:1034C000420E0C24E16E000E0D20E26EDFCFE7FF0E
:1034D0004A0E0C24D96E000E0D20DA6E3A0E0C2422
:1034E000E16E000E0D20E26EDFCFE7FF360E0C24FA
:1034F000D96E000E0D20DA6E4A0E0C24E16E000E1D
:103500000D20E26EDFCFE7FF0C4A0D2AAFD7460E43
:103510006EEC0AF01200000E0D6E020E0C6E0DBE67
:1035200006D00D504DE1040E0C5CD8B049D04E0EC3
:103530000C24D96E000E0D20DA6E360E0C24E16ECE
:10354000000E0D20E26EDFCFE7FF4A0E0C24D96E8D
:10355000000E0D20DA6E4E0E0C24E16E000E0D20D2
:10356000E26EDFCFE7FF3A0E0C24D96E000E0D207D
:10357000DA6E4A0E0C24E16E000E0D20E26EDFCFF3
:10358000E7FF420E0C24D96E000E0D20DA6E3A0EC3
:103590000C24E16E000E0D20E26EDFCFE7FF360E49
:1035A0000C24D96E000E0D20DA6E420E0C24E16E52
:1035B000000E0D20E26EDFCFE7FF0C4A0D2AAFD7D9
:1035C000460E6EEC0AF01200000E0D6E020E0C6E2E
:1035D0000DBE06D00D504DE1040E0C5CD8B049D0A4
:1035E000460E0C24D96E000E0D20DA6E360E0C2419
:1035F000E16E000E0D20E26EDFCFE7FF420E0C24DD
:10360000D96E000E0D20DA6E460E0C24E16E000E0F
:103610000D20E26EDFCFE7FF3E0E0C24D96E000EC8
:103620000D20DA6E420E0C24E16E000E0D20E26ECB
:10363000DFCFE7FF4A0E0C24D96E000E0D20DA6EA4
:103640003E0E0C24E16E000E0D20E26EDFCFE7FF90
:10365000360E0C24D96E000E0D20DA6E4A0E0C24A4
:10366000E16E000E0D20E26EDFCFE7FF0C4A0D2A5F
:10367000AFD7440E6EEC0AF01200000E0D6E020E73
:103680000C6E0DBE06D00D504DE1040E0C5CD8B092
:1036900049D0460E0C24D96E000E0D20DA6E360E7F
:1036A0000C24E16E000E0D20E26EDFCFE7FF4A0E24
:1036B0000C24D96E000E0D20DA6E460E0C24E16E3D
:1036C000000E0D20E26EDFCFE7FF3E0E0C24D96E18
:1036D000000E0D20DA6E4A0E0C24E16E000E0D2055
:1036E000E26EDFCFE7FF420E0C24D96E000E0D20F4
:1036F000DA6E3E0E0C24E16E000E0D20E26EDFCF7E
:10370000E7FF360E0C24D96E000E0D20DA6E420E45
:103710000C24E16E000E0D20E26EDFCFE7FF0C4AB5
:103720000D2AAFD7440E6EEC0AF01200000E0D6E9B
:10373000000E0C6E0DBE06D00D504DE1020E0C5C5D
:10374000D8B049D04E0E0C24D96E000E0D20DA6E82
:10375000360E0C24E16E000E0D20E26EDFCFE7FF87
:103760004A0E0C24D96E000E0D20DA6E4E0E0C247B
:10377000E16E000E0D20E26EDFCFE7FF3A0E0C2463
:10378000D96E000E0D20DA6E4A0E0C24E16E000E8A
:103790000D20E26EDFCFE7FF420E0C24D96E000E43
:1037A0000D20DA6E3A0E0C24E16E000E0D20E26E52
:1037B000DFCFE7FF360E0C24D96E000E0D20DA6E37
:1037C000420E0C24E16E000E0D20E26EDFCFE7FF0B
:1037D0000C4A0D2AAFD7420E6EEC0AF01200000E12
:1037E0000D6E000E0C6E0DBE06D00D504DE1020E9A
:1037F0000C5CD8B049D04E0E0C24D96E000E0D20B2
:10380000DA6E360E0C24E16E000E0D20E26EDFCF74
:10381000E7FF420E0C24D96E000E0D20DA6E4E0E1C
:103820000C24E16E000E0D20E26EDFCFE7FF3A0EB2
:103830000C24D96E000E0D20DA6E420E0C24E16EBF
:10384000000E0D20E26EDFCFE7FF4A0E0C24D96E8A
:10385000000E0D20DA6E3A0E0C24E16E000E0D20E3
:10386000E26EDFCFE7FF360E0C24D96E000E0D207E
:10387000DA6E4A0E0C24E16E000E0D20E26EDFCFF0
:10388000E7FF0C4A0D2AAFD7420E6EEC0AF0120089
:10389000000E0001876F000E866F87BF06D087512C
:1038A00037E1040E865DD8B033D04E0E8625D96E32
:1038B000000E8721DA6E310EDF6E4A0E8625D96E34
:1038C000000E8721DA6E310EDF6E460E8625D96E28
:1038D000000E8721DA6E310EDF6E420E8625D96E1C
:1038E000000E8721DA6E310EDF6E3E0E8625D96E10
:1038F000000E8721DA6E310EDF6E3A0E8625D96E04
:10390000000E8721DA6E310EDF6E864B872BC5D70E
:10391000410E0DEC03F01200000E146E10AE06D036
:103920000F6C101ED8B0102A010E146E12AE04D007
:10393000116C121ED8B0122A11501210D8B418D01F
:10394000010E136E04D0D89011361236132A12AE1F
:10395000FAD711500F5C12501058D8A004D0115053
:103960000F5E1250105AD89012321132132EF1D726
:103970001450D8B404D00F6C101ED8B0102A0FC049
:103980000FF010C010F01200000E096E000E0A6E4B
:10399000000E0B6E000E0C6E01A008D0055009261B
:1039A00006500A2207500B2208500C22D8900536E8
:1039B000063607360836D890043203320232013216
:1039C0000150021003100410D8A4E6D709C001F07A
:1039D0000AC002F00BC003F00CC004F0120032C0A9
:1039E00001F033C002F034C003F035C004F06D0EB6
:1039F000056E4E0E066EC60E076E410E086EC4ECC6
:103A00001CF001C032F002C033F003C034F004C037
:103A100035F0390E3226300E3322000E3422000EDD
:103A20003522FF0E34140D6E7F0E35140E6E12000B
:103A3000600EF66E3A0EF76E000EF86E00EE32F083
:103A400010EE20F00900F5CFEEFFE550E150FAE16D
:103A5000526A53905392000EF86E0001DEEF12F09E
:103A600001000000303030303636363635353535E9
:103A7000343434343333333332323232313131311E
:103A8000306E949A30A404D02FC0C7FF948604D01F
:103A90002D502F10C76E949630502E10C66E120007
:103AA00001C032F002C033F0346A356A12002D6E64
:103AB0002DC0C9FF120067EC1DF0C9501200016E45
:103AC00001C0C9FF12006AEC1DF0C9501200C7B056
:0A3AD0001200FDD7C7B01200FDD7A9
:020000040020DA
:08000000FFFFFFFFFFFFFFFF00
:020000040030CA
:0E000000FF081F1EFF0181FF0FC00FE00F4021
:00000001FF
