:040000003EEF0CF0D3
:1006000000060006000600060005000500050005BE
:1006100000040004000400040003000300030003BE
:1006200000020002000200020001000100010001BE
:100630000000000E3A6E000E396E3ABE08D03A50F5
:1006400005E1040E395CD8B0B5D001D0B3D0D89054
:100650003934F66E3A34F76E290EF626060EF72276
:10066000D8903934D96E3A34DA6E290ED926000E74
:10067000DA220900F550DE1805E10900F550DE1810
:10068000D8B405D0000E366E000E356E1200D8902C
:100690003934F66E3A34F76E210EF626060EF7223E
:1006A000D8903934D96E3A34DA6E210ED926000E3C
:1006B000DA220900F550DE18E5E10900F550DE18F0
:1006C000D8A4E0D7D8903934F66E3A34F76E190EC4
:1006D000F626060EF722D8903934D96E3A34DA6EFF
:1006E000190ED926000EDA220900F550DE18CAE1EB
:1006F0000900F550DE18D8A4C5D7D8903934F66E65
:100700003A34F76E110EF626060EF722D8903934D9
:10071000D96E3A34DA6E110ED926000EDA220900AB
:10072000F550DE18AFE10900F550DE18D8A4AAD7BD
:10073000D8903934F66E3A34F76E090EF626060E66
:10074000F722D8903934D96E3A34DA6E090ED926A8
:10075000000EDA220900F550DE1894E10900F55088
:10076000DE18D8A48FD7D8903934F66E3A34F76EA5
:10077000010EF626060EF722D8903934D96E3A3497
:10078000DA6E010ED926000EDA220900F550DE18C5
:1007900005E10900F550DE18D8B405D0000E366E1C
:1007A000000E356E1200394A3A2A3ABE50D73A50F6
:1007B00001E147D7000E366E010E356E1200000EB5
:1007C000366E000E356E36BE08D0365005E1040E8A
:1007D000355CD8B0120001D01200D8903534F66ED6
:1007E0003634F76E290EF626060EF722D8903534E9
:1007F000D96E3634DA6E290ED926000EDA220900B7
:10080000F5CFDEFF0800F5CFDDFFD8903534F66E6A
:100810003634F76E210EF626060EF722D8903534C0
:10082000D96E3634DA6E210ED926000EDA2209008E
:10083000F5CFDEFF0800F5CFDDFFD8903534F66E3A
:100840003634F76E190EF626060EF722D890353498
:10085000D96E3634DA6E190ED926000EDA22090066
:10086000F5CFDEFF0800F5CFDDFFD8903534F66E0A
:100870003634F76E110EF626060EF722D890353470
:10088000D96E3634DA6E110ED926000EDA2209003E
:10089000F5CFDEFF0800F5CFDDFFD8903534F66EDA
:1008A0003634F76E090EF626060EF722D890353448
:1008B000D96E3634DA6E090ED926000EDA22090016
:1008C000F5CFDEFF0800F5CFDDFFD8903534F66EAA
:1008D0003634F76E010EF626060EF722D890353420
:1008E000D96E3634DA6E010ED926000EDA220900EE
:1008F000F5CFDEFF0800F5CFDDFF354A362A36BEDC
:100900006CD7365001E163D71200000E366E010E2F
:10091000356E36BE08D0365005E1040E355CD8B0D1
:10092000120001D01200D8903534D96E3634DA6E08
:10093000190ED926000EDA22D8903534E16E3634FD
:10094000E26E530EE126000EE222DECFE6FFDDCF9F
:10095000E5FFD8903534D96E3634DA6E290ED926B3
:10096000000EDA22D8903534E16E3634E26E190E7C
:10097000E126000EE222DECFE6FFDDCFE5FFD890D4
:100980003534D96E3634DA6E210ED926000EDA22CD
:10099000D8903534E16E3634E26E290EE126000E31
:1009A000E222DECFE6FFDDCFE5FFD8903534D96E09
:1009B0003634DA6E010ED926000EDA22D89035349C
:1009C000E16E3634E26E210EE126000EE222DECF29
:1009D000E6FFDDCFE5FFD8903534D96E3634DA6ED8
:1009E000530ED926000EDA22D8903534E16E363413
:1009F000E26E010EE126000EE222DECFE6FFDDCF41
:100A0000E5FF020E3526000E362236BE8CD7365054
:100A100001E183D71200000E366E010E356E36BE30
:100A200008D0365005E1040E355CD8B0120001D074
:100A30001200D8903534D96E3634DA6E190ED926B4
:100A4000000EDA22D8903534E16E3634E26E530E61
:100A5000E126000EE222DECFE6FFDDCFE5FFD890F3
:100A60003534D96E3634DA6E010ED926000EDA220C
:100A7000D8903534E16E3634E26E190EE126000E60
:100A8000E222DECFE6FFDDCFE5FFD8903534D96E28
:100A90003634DA6E210ED926000EDA22D89035349B
:100AA000E16E3634E26E010EE126000EE222DECF68
:100AB000E6FFDDCFE5FFD8903534D96E3634DA6EF7
:100AC000290ED926000EDA22D8903534E16E36345C
:100AD000E26E210EE126000EE222DECFE6FFDDCF40
:100AE000E5FFD8903534D96E3634DA6E530ED926F8
:100AF000000EDA22D8903534E16E3634E26E290EDB
:100B0000E126000EE222DECFE6FFDDCFE5FF020E9A
:100B10003526000E362236BE8CD7365001E183D7FB
:100B20001200000E366E000E356E36BE08D03650FE
:100B300005E1030E355CD8B0120001D01200D89048
:100B40003534D96E3634DA6E190ED926000EDA2213
:100B5000D8903534E16E3634E26E530EE126000E45
:100B6000E222DECFE6FFDDCFE5FFD8903534D96E47
:100B70003634DA6E010ED926000EDA22D8903534DA
:100B8000E16E3634E26E190EE126000EE222DECF6F
:100B9000E6FFDDCFE5FFD8903534D96E3634DA6E16
:100BA000210ED926000EDA22D8903534E16E363483
:100BB000E26E010EE126000EE222DECFE6FFDDCF7F
:100BC000E5FFD8903534D96E3634DA6E290ED92641
:100BD000000EDA22D8903534E16E3634E26E210E02
:100BE000E126000EE222DECFE6FFDDCFE5FFD89062
:100BF0003534D96E3634DA6E530ED926000EDA2229
:100C0000D8903534E16E3634E26E290EE126000EBE
:100C1000E222DECFE6FFDDCFE5FF020E3526000E35
:100C2000362236BE8CD7365001E183D71200000E33
:100C3000366E000E356E36BE08D0365005E1030E16
:100C4000355CD8B0120001D01200D8903534D96E7E
:100C50003634DA6E190ED926000EDA22D8903534E1
:100C6000E16E3634E26E530EE126000EE222DECF54
:100C7000E6FFDDCFE5FFD8903534D96E3634DA6E35
:100C8000290ED926000EDA22D8903534E16E36349A
:100C9000E26E190EE126000EE222DECFE6FFDDCF86
:100CA000E5FFD8903534D96E3634DA6E210ED92668
:100CB000000EDA22D8903534E16E3634E26E290E19
:100CC000E126000EE222DECFE6FFDDCFE5FFD89081
:100CD0003534D96E3634DA6E010ED926000EDA229A
:100CE000D8903534E16E3634E26E210EE126000EE6
:100CF000E222DECFE6FFDDCFE5FFD8903534D96EB6
:100D00003634DA6E530ED926000EDA22D8903534F6
:100D1000E16E3634E26E010EE126000EE222DECFF5
:100D2000E6FFDDCFE5FF020E3526000E362236BE89
:100D30008CD7365001E183D71200000E366E000EBC
:100D4000356E36BE08D0365005E1020E355CD8B09F
:100D5000120001D01200D8903534D96E3634DA6ED4
:100D6000190ED926000EDA22D8903534E16E3634C9
:100D7000E26E530EE126000EE222DECFE6FFDDCF6B
:100D8000E5FFD8903534D96E3634DA6E210ED92687
:100D9000000EDA22D8903534E16E3634E26E190E48
:100DA000E126000EE222DECFE6FFDDCFE5FFD890A0
:100DB0003534D96E3634DA6E090ED926000EDA22B1
:100DC000D8903534E16E3634E26E210EE126000E05
:100DD000E222DECFE6FFDDCFE5FFD8903534D96ED5
:100DE0003634DA6E110ED926000EDA22D890353458
:100DF000E16E3634E26E090EE126000EE222DECF0D
:100E0000E6FFDDCFE5FFD8903534D96E3634DA6EA3
:100E1000530ED926000EDA22D8903534E16E3634DE
:100E2000E26E110EE126000EE222DECFE6FFDDCFFC
:100E3000E5FF354A362A36BE8ED7365001E185D7D2
:100E40001200000E366E000E356E36BE08D03650DB
:100E500005E1020E355CD8B0120001D01200D89026
:100E60003534D96E3634DA6E190ED926000EDA22F0
:100E7000D8903534E16E3634E26E530EE126000E22
:100E8000E222DECFE6FFDDCFE5FFD8903534D96E24
:100E90003634DA6E110ED926000EDA22D8903534A7
:100EA000E16E3634E26E190EE126000EE222DECF4C
:100EB000E6FFDDCFE5FFD8903534D96E3634DA6EF3
:100EC000090ED926000EDA22D8903534E16E363478
:100ED000E26E110EE126000EE222DECFE6FFDDCF4C
:100EE000E5FFD8903534D96E3634DA6E210ED92626
:100EF000000EDA22D8903534E16E3634E26E090EF7
:100F0000E126000EE222DECFE6FFDDCFE5FFD8903E
:100F10003534D96E3634DA6E530ED926000EDA2205
:100F2000D8903534E16E3634E26E210EE126000EA3
:100F3000E222DECFE6FFDDCFE5FF354A362A36BEB8
:100F40008ED7365001E185D71200000E366E020EA4
:100F5000356E36BE08D0365005E1040E355CD8B08B
:100F6000120001D01200D8903534D96E3634DA6EC2
:100F7000290ED926000EDA22D8903534E16E3634A7
:100F8000E26E530EE126000EE222DECFE6FFDDCF59
:100F9000E5FFD8903534D96E3634DA6E110ED92685
:100FA000000EDA22D8903534E16E3634E26E290E26
:100FB000E126000EE222DECFE6FFDDCFE5FFD8908E
:100FC0003534D96E3634DA6E010ED926000EDA22A7
:100FD000D8903534E16E3634E26E110EE126000E03
:100FE000E222DECFE6FFDDCFE5FFD8903534D96EC3
:100FF0003634DA6E210ED926000EDA22D890353436
:10100000E16E3634E26E010EE126000EE222DECF02
:10101000E6FFDDCFE5FFD8903534D96E3634DA6E91
:10102000530ED926000EDA22D8903534E16E3634CC
:10103000E26E210EE126000EE222DECFE6FFDDCFDA
:10104000E5FF354A362A36BE8ED7365001E185D7C0
:101050001200000E366E020E356E36BE08D03650C7
:1010600005E1040E355CD8B0120001D01200D89012
:101070003534D96E3634DA6E290ED926000EDA22CE
:10108000D8903534E16E3634E26E530EE126000E10
:10109000E222DECFE6FFDDCFE5FFD8903534D96E12
:1010A0003634DA6E210ED926000EDA22D890353485
:1010B000E16E3634E26E290EE126000EE222DECF2A
:1010C000E6FFDDCFE5FFD8903534D96E3634DA6EE1
:1010D000010ED926000EDA22D8903534E16E36346E
:1010E000E26E210EE126000EE222DECFE6FFDDCF2A
:1010F000E5FFD8903534D96E3634DA6E110ED92624
:10110000000EDA22D8903534E16E3634E26E010EEC
:10111000E126000EE222DECFE6FFDDCFE5FFD8902C
:101120003534D96E3634DA6E530ED926000EDA22F3
:10113000D8903534E16E3634E26E110EE126000EA1
:10114000E222DECFE6FFDDCFE5FF354A362A36BEA6
:101150008ED7365001E185D71200000E366E020E92
:10116000356E36BE08D0365005E1040E355CD8B079
:10117000120001D01200D8903534D96E3634DA6EB0
:10118000190ED926000EDA22D8903534E16E3634A5
:10119000E26E530EE126000EE222DECFE6FFDDCF47
:1011A000E5FFD8903534D96E3634DA6E110ED92673
:1011B000000EDA22D8903534E16E3634E26E190E24
:1011C000E126000EE222DECFE6FFDDCFE5FFD8907C
:1011D0003534D96E3634DA6E090ED926000EDA228D
:1011E000D8903534E16E3634E26E110EE126000EF1
:1011F000E222DECFE6FFDDCFE5FFD8903534D96EB1
:101200003634DA6E210ED926000EDA22D890353423
:10121000E16E3634E26E090EE126000EE222DECFE8
:10122000E6FFDDCFE5FFD8903534D96E3634DA6E7F
:10123000530ED926000EDA22D8903534E16E3634BA
:10124000E26E210EE126000EE222DECFE6FFDDCFC8
:10125000E5FF354A362A36BE8ED7365001E185D7AE
:101260001200000E366E020E356E36BE08D03650B5
:1012700005E1040E355CD8B0120001D01200D89000
:101280003534D96E3634DA6E190ED926000EDA22CC
:10129000D8903534E16E3634E26E530EE126000EFE
:1012A000E222DECFE6FFDDCFE5FFD8903534D96E00
:1012B0003634DA6E210ED926000EDA22D890353473
:1012C000E16E3634E26E190EE126000EE222DECF28
:1012D000E6FFDDCFE5FFD8903534D96E3634DA6ECF
:1012E000090ED926000EDA22D8903534E16E363454
:1012F000E26E210EE126000EE222DECFE6FFDDCF18
:10130000E5FFD8903534D96E3634DA6E110ED92611
:10131000000EDA22D8903534E16E3634E26E090ED2
:10132000E126000EE222DECFE6FFDDCFE5FFD8901A
:101330003534D96E3634DA6E530ED926000EDA22E1
:10134000D8903534E16E3634E26E110EE126000E8F
:10135000E222DECFE6FFDDCFE5FF354A362A36BE94
:101360008ED7365001E185D71200000E366E000E82
:10137000356E36BE08D0365005E1020E355CD8B069
:10138000120001D01200D8903534D96E3634DA6E9E
:10139000290ED926000EDA22D8903534E16E363483
:1013A000E26E530EE126000EE222DECFE6FFDDCF35
:1013B000E5FFD8903534D96E3634DA6E210ED92651
:1013C000000EDA22D8903534E16E3634E26E290E02
:1013D000E126000EE222DECFE6FFDDCFE5FFD8906A
:1013E0003534D96E3634DA6E010ED926000EDA2283
:1013F000D8903534E16E3634E26E210EE126000ECF
:10140000E222DECFE6FFDDCFE5FFD8903534D96E9E
:101410003634DA6E110ED926000EDA22D890353421
:10142000E16E3634E26E010EE126000EE222DECFDE
:10143000E6FFDDCFE5FFD8903534D96E3634DA6E6D
:10144000530ED926000EDA22D8903534E16E3634A8
:10145000E26E110EE126000EE222DECFE6FFDDCFC6
:10146000E5FF354A362A36BE8ED7365001E185D79C
:101470001200000E366E000E356E36BE08D03650A5
:1014800005E1020E355CD8B0120001D01200D890F0
:101490003534D96E3634DA6E290ED926000EDA22AA
:1014A000D8903534E16E3634E26E530EE126000EEC
:1014B000E222DECFE6FFDDCFE5FFD8903534D96EEE
:1014C0003634DA6E110ED926000EDA22D890353471
:1014D000E16E3634E26E290EE126000EE222DECF06
:1014E000E6FFDDCFE5FFD8903534D96E3634DA6EBD
:1014F000010ED926000EDA22D8903534E16E36344A
:10150000E26E110EE126000EE222DECFE6FFDDCF15
:10151000E5FFD8903534D96E3634DA6E210ED926EF
:10152000000EDA22D8903534E16E3634E26E010EC8
:10153000E126000EE222DECFE6FFDDCFE5FFD89008
:101540003534D96E3634DA6E530ED926000EDA22CF
:10155000D8903534E16E3634E26E210EE126000E6D
:10156000E222DECFE6FFDDCFE5FF354A362A36BE82
:101570008ED7365001E185D71200938E938C938AD3
:1015800093889386938493829380958E958C958A85
:101590009588948E000E526E010E516E000E506EA4
:1015A000000E4F6E82BE5FD038EC0BF0000E526E14
:1015B000000E516E58D081BE03D021EC07F04DD003
:1015C00081BC03D09DEC06F048D081BA03D031EC49
:1015D00009F043D081B803D0ADEC08F03ED081B61D
:1015E00003D017EC06F039D081B403D091EC05F0AC
:1015F00034D081B203D00BEC05F02FD081B003D0F2
:1016000085EC04F02AD083BE03D029EC08F025D065
:1016100083BC03D0A5EC07F020D083BA03D039EC0B
:101620000AF01BD083B803D0B5EC09F016D082BE07
:1016300014D0000E506E010E0BD082BE0AD0DFEC2B
:1016400003F0000E526E010E516E000E506E000E31
:101650004F6E4F045010D8B4F0D719EC03F035C0DA
:1016600051F036C052F051505210D8A49BD7A3D796
:10167000D6CF35F0D7CF36F073EC0CF0000E4E6EAF
:10168000010E4D6E4EBE06D04E506BE1150E4D5CF8
:10169000D8B0120015EC0CF041C043F042C044F049
:1016A000000E466E0C0E456EB2EC0BF0010E43249C
:1016B0004B6E000E44204C6E24D021EC07F04ED02F
:1016C0009DEC06F04BD031EC09F048D0ADEC08F0C1
:1016D00045D017EC06F042D091EC05F03FD00BEC72
:1016E00005F03CD085EC04F039D029EC08F036D078
:1016F000A5EC07F033D039EC0AF030D0B5EC09F0A6
:101700002DD04BC049F04CC04AF04A50000AD8A432
:1017100025D04950010AD8B4D0D7030AD8B4D0D7BD
:10172000010AD8B4D0D7070AD8B4D0D7010AD8B4A0
:10173000D0D7030AD8B4D0D7010AD8B4D0D70F0A6B
:10174000D8B4D0D7010AD8B4D0D7030AD8B4D0D7E8
:10175000010AD8B4D0D7070AD8B4D0D74D4A4E2AF8
:1017600091D71200000E486E44AE06D0436C441E62
:10177000D8B0442A010E486E46AE04D0456C461ED1
:10178000D8B0462A45504610D8B418D0010E476E3E
:1017900004D0D89045364636472A46AEFAD745504B
:1017A000435C46504458D8A004D04550435E465050
:1017B000445AD89046324532472EF1D74850D8B4D3
:1017C00004D0436C441ED8B0442A43C043F044C004
:1017D00044F01200000E3D6E000E3E6E000E3F6E95
:1017E000000E406E35A008D039503D263A503E22BA
:1017F0003B503F223C504022D89039363A363B3657
:101800003C36D89038323732363235323550361091
:1018100037103810D8A4E6D73DC035F03EC036F0BA
:101820003FC037F040C038F0120031C035F032C050
:1018300036F033C037F034C038F06D0E396E4E0ECE
:101840003A6EC60E3B6E410E3C6EEAEC0BF035C0B4
:1018500031F036C032F037C033F038C034F0390ED2
:101860003126300E3222000E3322000E3422FF0EBB
:101870003314416E7F0E3414426E1200B20EF66EB7
:10188000180EF76E000EF86E00EE01F010EE34F058
:101890000900F5CFEEFFE550E150FAE100EE53F01C
:1018A000080EEE6AE806FDE1000EF86E0001BDEFDD
:1018B0000AF0060006000600060005000500050007
:1018C00005000400040004000400030003000300FA
:1018D00003000200020002000200010001000100FA
:1018E00001000100000035C031F036C032F0336A2B
:0418F000346A120044
:020000040020DA
:08000000FFFFFFFFFFFFFFFF00
:020000040030CA
:0E000000FF081F1EFF8181FF0FC00FE00F40A1
:00000001FF
